{
  "_format": "hh-sol-artifact-1",
  "contractName": "Raffle",
  "sourceName": "contracts/Raffle.sol",
  "abi": [
    {
      "inputs": [
        {
          "internalType": "uint256",
          "name": "_entryFee",
          "type": "uint256"
        }
      ],
      "stateMutability": "nonpayable",
      "type": "constructor"
    },
    {
      "anonymous": false,
      "inputs": [
        {
          "indexed": true,
          "internalType": "address",
          "name": "player",
          "type": "address"
        },
        {
          "indexed": false,
          "internalType": "uint256",
          "name": "amount",
          "type": "uint256"
        }
      ],
      "name": "PlayerEntered",
      "type": "event"
    },
    {
      "anonymous": false,
      "inputs": [],
      "name": "RaffleClosed",
      "type": "event"
    },
    {
      "anonymous": false,
      "inputs": [
        {
          "indexed": false,
          "internalType": "uint256",
          "name": "entryFee",
          "type": "uint256"
        }
      ],
      "name": "RaffleStarted",
      "type": "event"
    },
    {
      "anonymous": false,
      "inputs": [
        {
          "indexed": true,
          "internalType": "address",
          "name": "winner",
          "type": "address"
        },
        {
          "indexed": false,
          "internalType": "uint256",
          "name": "amount",
          "type": "uint256"
        }
      ],
      "name": "WinnerPicked",
      "type": "event"
    },
    {
      "inputs": [],
      "name": "activateRaffle",
      "outputs": [],
      "stateMutability": "nonpayable",
      "type": "function"
    },
    {
      "inputs": [],
      "name": "closeRaffle",
      "outputs": [],
      "stateMutability": "nonpayable",
      "type": "function"
    },
    {
      "inputs": [],
      "name": "enter",
      "outputs": [],
      "stateMutability": "payable",
      "type": "function"
    },
    {
      "inputs": [],
      "name": "entryFee",
      "outputs": [
        {
          "internalType": "uint256",
          "name": "",
          "type": "uint256"
        }
      ],
      "stateMutability": "view",
      "type": "function"
    },
    {
      "inputs": [],
      "name": "getPlayerCount",
      "outputs": [
        {
          "internalType": "uint256",
          "name": "",
          "type": "uint256"
        }
      ],
      "stateMutability": "view",
      "type": "function"
    },
    {
      "inputs": [],
      "name": "getPlayers",
      "outputs": [
        {
          "internalType": "address[]",
          "name": "",
          "type": "address[]"
        }
      ],
      "stateMutability": "view",
      "type": "function"
    },
    {
      "inputs": [],
      "name": "getPrizePool",
      "outputs": [
        {
          "internalType": "uint256",
          "name": "",
          "type": "uint256"
        }
      ],
      "stateMutability": "view",
      "type": "function"
    },
    {
      "inputs": [],
      "name": "getRaffleInfo",
      "outputs": [
        {
          "internalType": "uint256",
          "name": "_entryFee",
          "type": "uint256"
        },
        {
          "internalType": "uint256",
          "name": "_playerCount",
          "type": "uint256"
        },
        {
          "internalType": "uint256",
          "name": "_prizePool",
          "type": "uint256"
        },
        {
          "internalType": "bool",
          "name": "_isActive",
          "type": "bool"
        },
        {
          "internalType": "address",
          "name": "_lastWinner",
          "type": "address"
        },
        {
          "internalType": "uint256",
          "name": "_lastWinAmount",
          "type": "uint256"
        }
      ],
      "stateMutability": "view",
      "type": "function"
    },
    {
      "inputs": [],
      "name": "isActive",
      "outputs": [
        {
          "internalType": "bool",
          "name": "",
          "type": "bool"
        }
      ],
      "stateMutability": "view",
      "type": "function"
    },
    {
      "inputs": [],
      "name": "lastWinAmount",
      "outputs": [
        {
          "internalType": "uint256",
          "name": "",
          "type": "uint256"
        }
      ],
      "stateMutability": "view",
      "type": "function"
    },
    {
      "inputs": [],
      "name": "lastWinner",
      "outputs": [
        {
          "internalType": "address",
          "name": "",
          "type": "address"
        }
      ],
      "stateMutability": "view",
      "type": "function"
    },
    {
      "inputs": [],
      "name": "owner",
      "outputs": [
        {
          "internalType": "address",
          "name": "",
          "type": "address"
        }
      ],
      "stateMutability": "view",
      "type": "function"
    },
    {
      "inputs": [],
      "name": "pickWinner",
      "outputs": [],
      "stateMutability": "nonpayable",
      "type": "function"
    },
    {
      "inputs": [
        {
          "internalType": "uint256",
          "name": "",
          "type": "uint256"
        }
      ],
      "name": "players",
      "outputs": [
        {
          "internalType": "address",
          "name": "",
          "type": "address"
        }
      ],
      "stateMutability": "view",
      "type": "function"
    },
    {
      "inputs": [
        {
          "internalType": "uint256",
          "name": "_entryFee",
          "type": "uint256"
        }
      ],
      "name": "startNewRaffle",
      "outputs": [],
      "stateMutability": "nonpayable",
      "type": "function"
    }
  ],
  "bytecode": "0x60806040523480156200001157600080fd5b506040516200154a3803806200154a833981810160405281019062000037919062000119565b336000806101000a81548173ffffffffffffffffffffffffffffffffffffffff021916908373ffffffffffffffffffffffffffffffffffffffff160217905550806001819055506001600560006101000a81548160ff0219169083151502179055507fe23fdee573320f133dc10284dcb988d5c782f07ec7b6b01d7ffbc6d537b2a42181604051620000ca91906200015c565b60405180910390a15062000179565b600080fd5b6000819050919050565b620000f381620000de565b8114620000ff57600080fd5b50565b6000815190506200011381620000e8565b92915050565b600060208284031215620001325762000131620000d9565b5b6000620001428482850162000102565b91505092915050565b6200015681620000de565b82525050565b60006020820190506200017360008301846200014b565b92915050565b6113c180620001896000396000f3fe6080604052600436106100e85760003560e01c8063884bf67c1161008a578063c2e5220611610059578063c2e522061461028d578063e97dcb62146102b8578063f71d96cb146102c2578063fe188184146102ff576100e8565b8063884bf67c146101e15780638b5b9ccc1461020c5780638da5cb5b1461023757806398ec58fd14610262576100e8565b80635d495aea116100c65780635d495aea1461016c57806378a77b84146101835780638166f6b21461019a57806385afe479146101ca576100e8565b806305610ef7146100ed578063072ea61c1461011657806322f3e2d414610141575b600080fd5b3480156100f957600080fd5b50610114600480360381019061010f9190610cdd565b61032a565b005b34801561012257600080fd5b5061012b61045c565b6040516101389190610d19565b60405180910390f35b34801561014d57600080fd5b50610156610462565b6040516101639190610d4f565b60405180910390f35b34801561017857600080fd5b50610181610475565b005b34801561018f57600080fd5b5061019861077f565b005b3480156101a657600080fd5b506101af610856565b6040516101c196959493929190610dab565b60405180910390f35b3480156101d657600080fd5b506101df6108b3565b005b3480156101ed57600080fd5b506101f661095e565b6040516102039190610d19565b60405180910390f35b34801561021857600080fd5b50610221610966565b60405161022e9190610eca565b60405180910390f35b34801561024357600080fd5b5061024c6109f4565b6040516102599190610eec565b60405180910390f35b34801561026e57600080fd5b50610277610a18565b6040516102849190610d19565b60405180910390f35b34801561029957600080fd5b506102a2610a1e565b6040516102af9190610d19565b60405180910390f35b6102c0610a2b565b005b3480156102ce57600080fd5b506102e960048036038101906102e49190610cdd565b610bff565b6040516102f69190610eec565b60405180910390f35b34801561030b57600080fd5b50610314610c3e565b6040516103219190610eec565b60405180910390f35b60008054906101000a900473ffffffffffffffffffffffffffffffffffffffff1673ffffffffffffffffffffffffffffffffffffffff163373ffffffffffffffffffffffffffffffffffffffff16146103b8576040517f08c379a00000000000000000000000000000000000000000000000000000000081526004016103af90610f8a565b60405180910390fd5b600060028054905014610400576040517f08c379a00000000000000000000000000000000000000000000000000000000081526004016103f79061101c565b60405180910390fd5b806001819055506001600560006101000a81548160ff0219169083151502179055507fe23fdee573320f133dc10284dcb988d5c782f07ec7b6b01d7ffbc6d537b2a421816040516104519190610d19565b60405180910390a150565b60015481565b600560009054906101000a900460ff1681565b60008054906101000a900473ffffffffffffffffffffffffffffffffffffffff1673ffffffffffffffffffffffffffffffffffffffff163373ffffffffffffffffffffffffffffffffffffffff1614610503576040517f08c379a00000000000000000000000000000000000000000000000000000000081526004016104fa90610f8a565b60405180910390fd5b600560009054906101000a900460ff16610552576040517f08c379a000000000000000000000000000000000000000000000000000000000815260040161054990611088565b60405180910390fd5b60006002805490501161059a576040517f08c379a0000000000000000000000000000000000000000000000000000000008152600401610591906110f4565b60405180910390fd5b600060028054905042446002805490506040516020016105bc93929190611135565b6040516020818303038152906040528051906020012060001c6105df91906111a1565b90506000600282815481106105f7576105f66111d2565b5b9060005260206000200160009054906101000a900473ffffffffffffffffffffffffffffffffffffffff169050600047905081600360006101000a81548173ffffffffffffffffffffffffffffffffffffffff021916908373ffffffffffffffffffffffffffffffffffffffff160217905550806004819055506002600061067f9190610c64565b60008273ffffffffffffffffffffffffffffffffffffffff16826040516106a590611232565b60006040518083038185875af1925050503d80600081146106e2576040519150601f19603f3d011682016040523d82523d6000602084013e6106e7565b606091505b505090508061072b576040517f08c379a000000000000000000000000000000000000000000000000000000000815260040161072290611293565b60405180910390fd5b8273ffffffffffffffffffffffffffffffffffffffff167f64791dbae5677392ba76761a5273633cec8f1d9d8cfe808da7bac6ef16a880be836040516107719190610d19565b60405180910390a250505050565b60008054906101000a900473ffffffffffffffffffffffffffffffffffffffff1673ffffffffffffffffffffffffffffffffffffffff163373ffffffffffffffffffffffffffffffffffffffff161461080d576040517f08c379a000000000000000000000000000000000000000000000000000000000815260040161080490610f8a565b60405180910390fd5b6000600560006101000a81548160ff0219169083151502179055507faad504bbd8611c3ca7bee4650e210399b65e840cfca9cb41f663aa89f271f9c360405160405180910390a1565b60008060008060008060015460028054905047600560009054906101000a900460ff16600360009054906101000a900473ffffffffffffffffffffffffffffffffffffffff16600454955095509550955095509550909192939495565b60008054906101000a900473ffffffffffffffffffffffffffffffffffffffff1673ffffffffffffffffffffffffffffffffffffffff163373ffffffffffffffffffffffffffffffffffffffff1614610941576040517f08c379a000000000000000000000000000000000000000000000000000000000815260040161093890610f8a565b60405180910390fd5b6001600560006101000a81548160ff021916908315150217905550565b600047905090565b606060028054806020026020016040519081016040528092919081815260200182805480156109ea57602002820191906000526020600020905b8160009054906101000a900473ffffffffffffffffffffffffffffffffffffffff1673ffffffffffffffffffffffffffffffffffffffff16815260200190600101908083116109a0575b5050505050905090565b60008054906101000a900473ffffffffffffffffffffffffffffffffffffffff1681565b60045481565b6000600280549050905090565b600560009054906101000a900460ff16610a7a576040517f08c379a0000000000000000000000000000000000000000000000000000000008152600401610a7190611088565b60405180910390fd5b6001543414610abe576040517f08c379a0000000000000000000000000000000000000000000000000000000008152600401610ab5906112ff565b60405180910390fd5b60008054906101000a900473ffffffffffffffffffffffffffffffffffffffff1673ffffffffffffffffffffffffffffffffffffffff163373ffffffffffffffffffffffffffffffffffffffff1603610b4c576040517f08c379a0000000000000000000000000000000000000000000000000000000008152600401610b439061136b565b60405180910390fd5b6002339080600181540180825580915050600190039060005260206000200160009091909190916101000a81548173ffffffffffffffffffffffffffffffffffffffff021916908373ffffffffffffffffffffffffffffffffffffffff1602179055503373ffffffffffffffffffffffffffffffffffffffff167fc16481c9484122696a660b57df0bf6839645c6b620cb1704ac2437de13be922534604051610bf59190610d19565b60405180910390a2565b60028181548110610c0f57600080fd5b906000526020600020016000915054906101000a900473ffffffffffffffffffffffffffffffffffffffff1681565b600360009054906101000a900473ffffffffffffffffffffffffffffffffffffffff1681565b5080546000825590600052602060002090810190610c829190610c85565b50565b5b80821115610c9e576000816000905550600101610c86565b5090565b600080fd5b6000819050919050565b610cba81610ca7565b8114610cc557600080fd5b50565b600081359050610cd781610cb1565b92915050565b600060208284031215610cf357610cf2610ca2565b5b6000610d0184828501610cc8565b91505092915050565b610d1381610ca7565b82525050565b6000602082019050610d2e6000830184610d0a565b92915050565b60008115159050919050565b610d4981610d34565b82525050565b6000602082019050610d646000830184610d40565b92915050565b600073ffffffffffffffffffffffffffffffffffffffff82169050919050565b6000610d9582610d6a565b9050919050565b610da581610d8a565b82525050565b600060c082019050610dc06000830189610d0a565b610dcd6020830188610d0a565b610dda6040830187610d0a565b610de76060830186610d40565b610df46080830185610d9c565b610e0160a0830184610d0a565b979650505050505050565b600081519050919050565b600082825260208201905092915050565b6000819050602082019050919050565b610e4181610d8a565b82525050565b6000610e538383610e38565b60208301905092915050565b6000602082019050919050565b6000610e7782610e0c565b610e818185610e17565b9350610e8c83610e28565b8060005b83811015610ebd578151610ea48882610e47565b9750610eaf83610e5f565b925050600181019050610e90565b5085935050505092915050565b60006020820190508181036000830152610ee48184610e6c565b905092915050565b6000602082019050610f016000830184610d9c565b92915050565b600082825260208201905092915050565b7f4f6e6c79206f776e65722063616e2063616c6c20746869732066756e6374696f60008201527f6e00000000000000000000000000000000000000000000000000000000000000602082015250565b6000610f74602183610f07565b9150610f7f82610f18565b604082019050919050565b60006020820190508181036000830152610fa381610f67565b9050919050565b7f43757272656e7420726166666c65206d75737420626520636f6d706c6574656460008201527f2066697273740000000000000000000000000000000000000000000000000000602082015250565b6000611006602683610f07565b915061101182610faa565b604082019050919050565b6000602082019050818103600083015261103581610ff9565b9050919050565b7f526166666c65206973206e6f7420616374697665000000000000000000000000600082015250565b6000611072601483610f07565b915061107d8261103c565b602082019050919050565b600060208201905081810360008301526110a181611065565b9050919050565b7f4e6f20706c617965727320696e2074686520726166666c650000000000000000600082015250565b60006110de601883610f07565b91506110e9826110a8565b602082019050919050565b6000602082019050818103600083015261110d816110d1565b9050919050565b6000819050919050565b61112f61112a82610ca7565b611114565b82525050565b6000611141828661111e565b602082019150611151828561111e565b602082019150611161828461111e565b602082019150819050949350505050565b7f4e487b7100000000000000000000000000000000000000000000000000000000600052601260045260246000fd5b60006111ac82610ca7565b91506111b783610ca7565b9250826111c7576111c6611172565b5b828206905092915050565b7f4e487b7100000000000000000000000000000000000000000000000000000000600052603260045260246000fd5b600081905092915050565b50565b600061121c600083611201565b91506112278261120c565b600082019050919050565b600061123d8261120f565b9150819050919050565b7f5472616e73666572206661696c65640000000000000000000000000000000000600082015250565b600061127d600f83610f07565b915061128882611247565b602082019050919050565b600060208201905081810360008301526112ac81611270565b9050919050565b7f496e636f727265637420656e7472792066656500000000000000000000000000600082015250565b60006112e9601383610f07565b91506112f4826112b3565b602082019050919050565b60006020820190508181036000830152611318816112dc565b9050919050565b7f4f776e65722063616e6e6f7420656e7465722074686520726166666c65000000600082015250565b6000611355601d83610f07565b91506113608261131f565b602082019050919050565b6000602082019050818103600083015261138481611348565b905091905056fea2646970667358221220663b9340b8413503d6d721b533ad3f6f72621f35a2f7832f1b4ad9c73aa31bad64736f6c63430008130033",
  "linkReferences": {},
  "deployedLinkReferences": {}
}